:020000020000FC
:0200000055C0E9
:0800040078D018958AD01895F8
:040010009AD01895D5
:1000AC000FEF0DBF0AE00EBF0FEF04B900E005B96A
:1000BC0000E00AB90FEF0BB90AE8009369000BE0F6
:1000CC000DBB01EF0093800009E00093810000E973
:1000DC0005B931E120E005B1022B05B911275527EF
:1000EC00789400E9022B05B9FCCF0F930FB70F934F
:1000FC003F932F3039F0130F239531D005B1007F8A
:10010C00022B05B901E00CBB3F910F910FBF0F9172
:10011C0008950F930FB70F933F93203039F0131BB3
:10012C002A951DD005B1007F022705B901E00CBB53
:10013C003F910F910FBF0F9108950F930FB70F932E
:10014C003F932FE01FEF0BD005B1007F022B05B9B9
:10015C0001E00CBB3F910F910FBF0F91089550938D
:10016C0089001093880050938B0010938A00089597
:00000001FF
