:020000020000FC
:0200000055C0E9
:1000AC000FEF0DBF00E10EBF222493D0FFCFE4EC85
:1000BC00F2E0A0E1B1E0C3E1D1E035903D923590A2
:1000CC003D9234903C92E8ECF2E0359039923590C8
:1000DC003992349038820895ECEBF2E0A0E2B1E072
:1000EC00C2E2D1E035903D9234903C92EEEBF2E0DE
:1000FC0035903992349038820895E0ECF2E0A0E427
:10010C00B1E0C2E4D1E035903D9234903C92E2EC07
:10011C00F2E035903992349038820895A0E2B1E043
:10012C00C2E2D1E0E0E3F1E03D904990340C319231
:10013C003C904880341C319210F401E00083089507
:10014C00A0E4B1E0C2E4D1E0E0E5F1E03D904990FB
:10015C00341831923C9048803408319210F401E00C
:10016C00008308953F924F921F920F922F92BF934C
:10017C00AF93DF93CF93FF93EF931F932F9322248F
:10018C00C3E1D1E0E6E1F1E013E0A0E1B1E023E06E
:10019C003D904880349C31904190030C141C30806D
:1001AC00321C30821292029231962A9589F732973C
:1001BC0021961A9551F72F911F91EF91FF91CF91A5
:1001CC00DF91AF91BF912F900F901F904F903F9068
:1001DC000895ECECF2E0A0E4B1E035903D9234905F
:1001EC003C92EEECF2E0A2E4B1E035903D9234901A
:1001FC003C92A6DFE0EDF2E0A0E2B1E035903D925A
:10020C0034903C92E0E5F1E0A2E2B1E031903D9215
:10021C0030803C9283DFE0E3F1E0A0E1B1E0C3E1A8
:10022C00D1E031903D9231903D9230803C92E0E3B0
:10023C00F1E031903992319039923080388292DFEE
:10024C0008953F924F921F920F922F92BF93AF93AC
:10025C00DF93CF93FF93EF931F932F932224C0E14F
:10026C00D1E0E6E1F1E012E0A0E0B1E022E03D9067
:10027C004880349C31904190030C141C3080321C0B
:10028C0030821292029231962A9589F731972196F3
:10029C001A9551F72F911F91EF91FF91CF91DF910B
:1002AC00AF91BF912F900F901F904F903F9008955A
:1002BC0001000200B9FC20E4FFFFFF00FFFFFF007C
:0602CC00BAFC2220BB2158
:00000001FF
