:020000020000FC
:0200000055C0E9
:0800040071D018957ED018950B
:0400100089D01895E6
:1000AC000FEF0DBF0AE00EBF0FEF04B900E005B96A
:1000BC0000E00AB90FEF0BB90AE8009369000BE0F6
:1000CC000DBB01EF0093800009E00093810000E973
:1000DC0005B92227789400E905B9FDCF0F930FB726
:1000EC000F932F3021F01FEF01E1100F21D001E011
:1000FC000CBB0F910FBF0F9108950F930FB70F9378
:10010C00203021F010E001E1101B12D001E00CBBFB
:10011C000F910FBF0F9108950F930FB70F932FE00F
:10012C001FEF06D001E00CBB0F910FBF0F9108958C
:08013C001093880010938A0063
:00000001FF
